{
  "contractName": "TicketingApplication",
  "abi": [
    {
      "constant": true,
      "inputs": [
        {
          "name": "",
          "type": "uint256"
        }
      ],
      "name": "tickets",
      "outputs": [
        {
          "name": "id",
          "type": "uint256"
        },
        {
          "name": "name",
          "type": "string"
        },
        {
          "name": "status",
          "type": "uint8"
        },
        {
          "name": "PurchasePrice",
          "type": "uint256"
        },
        {
          "name": "originalPrice",
          "type": "uint256"
        }
      ],
      "payable": false,
      "stateMutability": "view",
      "type": "function"
    },
    {
      "constant": true,
      "inputs": [],
      "name": "owner",
      "outputs": [
        {
          "name": "",
          "type": "address"
        }
      ],
      "payable": false,
      "stateMutability": "view",
      "type": "function"
    },
    {
      "constant": false,
      "inputs": [
        {
          "name": "newOwner",
          "type": "address"
        }
      ],
      "name": "transferOwnership",
      "outputs": [],
      "payable": false,
      "stateMutability": "nonpayable",
      "type": "function"
    },
    {
      "inputs": [
        {
          "name": "_initialSupply",
          "type": "uint256"
        },
        {
          "name": "_price",
          "type": "uint256"
        }
      ],
      "payable": false,
      "stateMutability": "nonpayable",
      "type": "constructor"
    },
    {
      "anonymous": false,
      "inputs": [
        {
          "indexed": true,
          "name": "_from",
          "type": "address"
        },
        {
          "indexed": true,
          "name": "_to",
          "type": "address"
        },
        {
          "indexed": true,
          "name": "_tokenId",
          "type": "uint256"
        }
      ],
      "name": "Transfer",
      "type": "event"
    },
    {
      "anonymous": false,
      "inputs": [
        {
          "indexed": true,
          "name": "_owner",
          "type": "address"
        },
        {
          "indexed": true,
          "name": "_approved",
          "type": "address"
        },
        {
          "indexed": true,
          "name": "_tokenId",
          "type": "uint256"
        }
      ],
      "name": "Approval",
      "type": "event"
    },
    {
      "anonymous": false,
      "inputs": [
        {
          "indexed": true,
          "name": "_owner",
          "type": "address"
        },
        {
          "indexed": true,
          "name": "_operator",
          "type": "address"
        },
        {
          "indexed": false,
          "name": "_approved",
          "type": "bool"
        }
      ],
      "name": "ApprovalForAll",
      "type": "event"
    },
    {
      "anonymous": false,
      "inputs": [
        {
          "indexed": true,
          "name": "_amount",
          "type": "uint256"
        },
        {
          "indexed": false,
          "name": "_increased",
          "type": "bool"
        }
      ],
      "name": "SupplyUpdate",
      "type": "event"
    },
    {
      "anonymous": false,
      "inputs": [
        {
          "indexed": true,
          "name": "_from",
          "type": "address"
        },
        {
          "indexed": true,
          "name": "_to",
          "type": "address"
        },
        {
          "indexed": true,
          "name": "_tokenId",
          "type": "uint256"
        },
        {
          "indexed": false,
          "name": "price",
          "type": "uint256"
        }
      ],
      "name": "TicketPurchased",
      "type": "event"
    },
    {
      "constant": false,
      "inputs": [
        {
          "name": "_amount",
          "type": "uint256"
        }
      ],
      "name": "purchaseTickets",
      "outputs": [],
      "payable": true,
      "stateMutability": "payable",
      "type": "function"
    },
    {
      "constant": false,
      "inputs": [
        {
          "name": "_amount",
          "type": "uint256"
        }
      ],
      "name": "addTickets",
      "outputs": [],
      "payable": false,
      "stateMutability": "nonpayable",
      "type": "function"
    },
    {
      "constant": false,
      "inputs": [
        {
          "name": "_price",
          "type": "uint256"
        }
      ],
      "name": "updateTicketPrice",
      "outputs": [],
      "payable": false,
      "stateMutability": "nonpayable",
      "type": "function"
    },
    {
      "constant": false,
      "inputs": [
        {
          "name": "_amount",
          "type": "uint256"
        }
      ],
      "name": "burnTickets",
      "outputs": [],
      "payable": false,
      "stateMutability": "nonpayable",
      "type": "function"
    },
    {
      "constant": false,
      "inputs": [
        {
          "name": "_owner",
          "type": "address"
        },
        {
          "name": "_tokenId",
          "type": "uint256"
        }
      ],
      "name": "burnTicketsFrom",
      "outputs": [],
      "payable": false,
      "stateMutability": "nonpayable",
      "type": "function"
    },
    {
      "constant": false,
      "inputs": [
        {
          "name": "_status",
          "type": "bool"
        }
      ],
      "name": "updateBreakerStatus",
      "outputs": [],
      "payable": false,
      "stateMutability": "nonpayable",
      "type": "function"
    },
    {
      "constant": false,
      "inputs": [
        {
          "name": "_owner",
          "type": "address"
        },
        {
          "name": "_tokenId",
          "type": "uint256"
        },
        {
          "name": "_forSale",
          "type": "bool"
        }
      ],
      "name": "ticketForSale",
      "outputs": [],
      "payable": false,
      "stateMutability": "nonpayable",
      "type": "function"
    },
    {
      "constant": true,
      "inputs": [
        {
          "name": "_owner",
          "type": "address"
        },
        {
          "name": "_index",
          "type": "uint256"
        }
      ],
      "name": "ticketIndexLookup",
      "outputs": [
        {
          "name": "_tokenId",
          "type": "uint256"
        }
      ],
      "payable": false,
      "stateMutability": "view",
      "type": "function"
    },
    {
      "constant": false,
      "inputs": [
        {
          "name": "_tokenId",
          "type": "uint256"
        }
      ],
      "name": "redeemTicket",
      "outputs": [],
      "payable": false,
      "stateMutability": "nonpayable",
      "type": "function"
    },
    {
      "constant": true,
      "inputs": [
        {
          "name": "_tokenId",
          "type": "uint256"
        }
      ],
      "name": "Redeemed",
      "outputs": [
        {
          "name": "",
          "type": "bool"
        }
      ],
      "payable": false,
      "stateMutability": "view",
      "type": "function"
    },
    {
      "constant": true,
      "inputs": [],
      "name": "ticketPrice",
      "outputs": [
        {
          "name": "",
          "type": "uint256"
        }
      ],
      "payable": false,
      "stateMutability": "view",
      "type": "function"
    },
    {
      "constant": true,
      "inputs": [],
      "name": "remainingTickets",
      "outputs": [
        {
          "name": "",
          "type": "uint256"
        }
      ],
      "payable": false,
      "stateMutability": "view",
      "type": "function"
    },
    {
      "constant": true,
      "inputs": [
        {
          "name": "_owner",
          "type": "address"
        }
      ],
      "name": "balanceOf",
      "outputs": [
        {
          "name": "",
          "type": "uint256"
        }
      ],
      "payable": false,
      "stateMutability": "view",
      "type": "function"
    },
    {
      "constant": true,
      "inputs": [
        {
          "name": "_tokenId",
          "type": "uint256"
        }
      ],
      "name": "ownerOf",
      "outputs": [
        {
          "name": "",
          "type": "address"
        }
      ],
      "payable": false,
      "stateMutability": "view",
      "type": "function"
    },
    {
      "constant": false,
      "inputs": [
        {
          "name": "_from",
          "type": "address"
        },
        {
          "name": "_to",
          "type": "address"
        },
        {
          "name": "_tokenId",
          "type": "uint256"
        }
      ],
      "name": "transferFrom",
      "outputs": [],
      "payable": true,
      "stateMutability": "payable",
      "type": "function"
    },
    {
      "constant": false,
      "inputs": [
        {
          "name": "_owner",
          "type": "address"
        },
        {
          "name": "_tokenId",
          "type": "uint256"
        }
      ],
      "name": "purchaseTicketsFrom",
      "outputs": [],
      "payable": true,
      "stateMutability": "payable",
      "type": "function"
    },
    {
      "constant": false,
      "inputs": [
        {
          "name": "_tokenId",
          "type": "uint256"
        }
      ],
      "name": "refundTicket",
      "outputs": [],
      "payable": false,
      "stateMutability": "nonpayable",
      "type": "function"
    },
    {
      "constant": true,
      "inputs": [],
      "name": "contractBalance",
      "outputs": [
        {
          "name": "",
          "type": "uint256"
        }
      ],
      "payable": false,
      "stateMutability": "view",
      "type": "function"
    },
    {
      "constant": false,
      "inputs": [
        {
          "name": "_approved",
          "type": "address"
        },
        {
          "name": "_tokenId",
          "type": "uint256"
        }
      ],
      "name": "approve",
      "outputs": [],
      "payable": true,
      "stateMutability": "payable",
      "type": "function"
    },
    {
      "constant": false,
      "inputs": [
        {
          "name": "_operator",
          "type": "address"
        },
        {
          "name": "_approved",
          "type": "bool"
        }
      ],
      "name": "setApprovalForAll",
      "outputs": [],
      "payable": false,
      "stateMutability": "nonpayable",
      "type": "function"
    },
    {
      "constant": true,
      "inputs": [
        {
          "name": "_tokenId",
          "type": "uint256"
        }
      ],
      "name": "getApproved",
      "outputs": [
        {
          "name": "",
          "type": "address"
        }
      ],
      "payable": false,
      "stateMutability": "view",
      "type": "function"
    },
    {
      "constant": true,
      "inputs": [
        {
          "name": "_owner",
          "type": "address"
        },
        {
          "name": "_operator",
          "type": "address"
        }
      ],
      "name": "isApprovedForAll",
      "outputs": [
        {
          "name": "",
          "type": "bool"
        }
      ],
      "payable": false,
      "stateMutability": "view",
      "type": "function"
    }
  ],
  "bytecode": "0x608060405260008060146101000a81548160ff021916908315150217905550600160035534801561002f57600080fd5b506040516040806133b08339810180604052604081101561004f57600080fd5b810190808051906020019092919080519060200190929190505050336000806101000a81548173ffffffffffffffffffffffffffffffffffffffff021916908373ffffffffffffffffffffffffffffffffffffffff16021790555081600181905550816002819055508060058190555050506132e0806100d06000396000f3fe608060405260043610610149576000357c0100000000000000000000000000000000000000000000000000000000900463ffffffff168063081812fc1461014e578063095ea7b3146101c95780630c48f57b146102175780631209b1f61461027257806315f59d7f1461029d57806323b872dd146102d857806350b447121461034657806351dbc830146104245780635d5048321461045f5780635ff3337f1461048a5780636352211e146104c557806370a082311461054057806375774100146105a557806382498456146105e05780638b7afe2e146106335780638da5cb5b1461065e578063a1277600146106b5578063a22cb465146106e3578063a302aaf814610740578063e18a82f81461077d578063e985e9c5146107ec578063ee6a23de14610875578063f02137c8146108dc578063f123f94614610917578063f2fde38b14610965575b600080fd5b34801561015a57600080fd5b506101876004803603602081101561017157600080fd5b81019080803590602001909291905050506109b6565b604051808273ffffffffffffffffffffffffffffffffffffffff1673ffffffffffffffffffffffffffffffffffffffff16815260200191505060405180910390f35b610215600480360360408110156101df57600080fd5b81019080803573ffffffffffffffffffffffffffffffffffffffff16906020019092919080359060200190929190505050610a63565b005b34801561022357600080fd5b506102706004803603604081101561023a57600080fd5b81019080803573ffffffffffffffffffffffffffffffffffffffff16906020019092919080359060200190929190505050610c4d565b005b34801561027e57600080fd5b5061028761102b565b6040518082815260200191505060405180910390f35b3480156102a957600080fd5b506102d6600480360360208110156102c057600080fd5b8101908080359060200190929190505050611035565b005b610344600480360360608110156102ee57600080fd5b81019080803573ffffffffffffffffffffffffffffffffffffffff169060200190929190803573ffffffffffffffffffffffffffffffffffffffff16906020019092919080359060200190929190505050611113565b005b34801561035257600080fd5b5061037f6004803603602081101561036957600080fd5b81019080803590602001909291905050506116f0565b604051808681526020018060200185600281111561039957fe5b60ff168152602001848152602001838152602001828103825286818151815260200191508051906020019080838360005b838110156103e55780820151818401526020810190506103ca565b50505050905090810190601f1680156104125780820380516001836020036101000a031916815260200191505b50965050505050505060405180910390f35b34801561043057600080fd5b5061045d6004803603602081101561044757600080fd5b81019080803590602001909291905050506117cb565b005b34801561046b57600080fd5b506104746118c2565b6040518082815260200191505060405180910390f35b34801561049657600080fd5b506104c3600480360360208110156104ad57600080fd5b81019080803590602001909291905050506118cc565b005b3480156104d157600080fd5b506104fe600480360360208110156104e857600080fd5b81019080803590602001909291905050506119ce565b604051808273ffffffffffffffffffffffffffffffffffffffff1673ffffffffffffffffffffffffffffffffffffffff16815260200191505060405180910390f35b34801561054c57600080fd5b5061058f6004803603602081101561056357600080fd5b81019080803573ffffffffffffffffffffffffffffffffffffffff169060200190929190505050611a0b565b6040518082815260200191505060405180910390f35b3480156105b157600080fd5b506105de600480360360208110156105c857600080fd5b8101908080359060200190929190505050611a8f565b005b3480156105ec57600080fd5b506106196004803603602081101561060357600080fd5b8101908080359060200190929190505050611e1a565b604051808215151515815260200191505060405180910390f35b34801561063f57600080fd5b50610648611e44565b6040518082815260200191505060405180910390f35b34801561066a57600080fd5b50610673611ebe565b604051808273ffffffffffffffffffffffffffffffffffffffff1673ffffffffffffffffffffffffffffffffffffffff16815260200191505060405180910390f35b6106e1600480360360208110156106cb57600080fd5b8101908080359060200190929190505050611ee3565b005b3480156106ef57600080fd5b5061073e6004803603604081101561070657600080fd5b81019080803573ffffffffffffffffffffffffffffffffffffffff16906020019092919080351515906020019092919050505061201e565b005b34801561074c57600080fd5b5061077b6004803603602081101561076357600080fd5b81019080803515159060200190929190505050612215565b005b34801561078957600080fd5b506107d6600480360360408110156107a057600080fd5b81019080803573ffffffffffffffffffffffffffffffffffffffff1690602001909291908035906020019092919050505061228d565b6040518082815260200191505060405180910390f35b3480156107f857600080fd5b5061085b6004803603604081101561080f57600080fd5b81019080803573ffffffffffffffffffffffffffffffffffffffff169060200190929190803573ffffffffffffffffffffffffffffffffffffffff1690602001909291905050506122e8565b604051808215151515815260200191505060405180910390f35b34801561088157600080fd5b506108da6004803603606081101561089857600080fd5b81019080803573ffffffffffffffffffffffffffffffffffffffff1690602001909291908035906020019092919080351515906020019092919050505061237c565b005b3480156108e857600080fd5b50610915600480360360208110156108ff57600080fd5b810190808035906020019092919050505061264e565b005b6109636004803603604081101561092d57600080fd5b81019080803573ffffffffffffffffffffffffffffffffffffffff169060200190929190803590602001909291905050506126e2565b005b34801561097157600080fd5b506109b46004803603602081101561098857600080fd5b81019080803573ffffffffffffffffffffffffffffffffffffffff169060200190929190505050612c91565b005b600060011515600a600084815260200190815260200160002060009054906101000a900460ff1615151415156109eb57600080fd5b600b60003373ffffffffffffffffffffffffffffffffffffffff1673ffffffffffffffffffffffffffffffffffffffff168152602001908152602001600020600083815260200190815260200160002060009054906101000a900473ffffffffffffffffffffffffffffffffffffffff169050919050565b8060001515600f600083815260200190815260200160002060009054906101000a900460ff161515141515610a9757600080fd5b60001515600060149054906101000a900460ff161515141515610ab657fe5b6009600083815260200190815260200160002060009054906101000a900473ffffffffffffffffffffffffffffffffffffffff1673ffffffffffffffffffffffffffffffffffffffff163373ffffffffffffffffffffffffffffffffffffffff16141515610b2357600080fd5b8273ffffffffffffffffffffffffffffffffffffffff163373ffffffffffffffffffffffffffffffffffffffff1614151515610b5e57600080fd5b82600b60003373ffffffffffffffffffffffffffffffffffffffff1673ffffffffffffffffffffffffffffffffffffffff168152602001908152602001600020600084815260200190815260200160002060006101000a81548173ffffffffffffffffffffffffffffffffffffffff021916908373ffffffffffffffffffffffffffffffffffffffff160217905550818373ffffffffffffffffffffffffffffffffffffffff163373ffffffffffffffffffffffffffffffffffffffff167f8c5be1e5ebec7d5bd14f71427d1e84f3dd0314c0f7b2291e5b200ac8c7c3b92560405160405180910390a4505050565b6000809054906101000a900473ffffffffffffffffffffffffffffffffffffffff1673ffffffffffffffffffffffffffffffffffffffff163373ffffffffffffffffffffffffffffffffffffffff16141515610ca857600080fd5b8173ffffffffffffffffffffffffffffffffffffffff166009600083815260200190815260200160002060009054906101000a900473ffffffffffffffffffffffffffffffffffffffff1673ffffffffffffffffffffffffffffffffffffffff16141515610d1557600080fd5b600860008060009054906101000a900473ffffffffffffffffffffffffffffffffffffffff1673ffffffffffffffffffffffffffffffffffffffff1673ffffffffffffffffffffffffffffffffffffffff168152602001908152602001600020546001600860008573ffffffffffffffffffffffffffffffffffffffff1673ffffffffffffffffffffffffffffffffffffffff1681526020019081526020016000205403101515610dc557600080fd5b6001600860008060009054906101000a900473ffffffffffffffffffffffffffffffffffffffff1673ffffffffffffffffffffffffffffffffffffffff1673ffffffffffffffffffffffffffffffffffffffff1681526020019081526020016000206000828254039250508190555060006009600083815260200190815260200160002060006101000a81548173ffffffffffffffffffffffffffffffffffffffff021916908373ffffffffffffffffffffffffffffffffffffffff16021790555060018060008282540392505081905550610ea18282612d2f565b6000600b60008473ffffffffffffffffffffffffffffffffffffffff1673ffffffffffffffffffffffffffffffffffffffff168152602001908152602001600020600083815260200190815260200160002060006101000a81548173ffffffffffffffffffffffffffffffffffffffff021916908373ffffffffffffffffffffffffffffffffffffffff16021790555080600073ffffffffffffffffffffffffffffffffffffffff168373ffffffffffffffffffffffffffffffffffffffff167fddf252ad1be2c89b69c2b068fc378daa952ba7f163c4a11628f55a4df523b3ef60405160405180910390a480600073ffffffffffffffffffffffffffffffffffffffff168373ffffffffffffffffffffffffffffffffffffffff167f8c5be1e5ebec7d5bd14f71427d1e84f3dd0314c0f7b2291e5b200ac8c7c3b92560405160405180910390a460017f68f746fa442825e3adb1debb25ccd514d1f0fcc51ea85ecbdb390968f4b487a56000604051808215151515815260200191505060405180910390a25050565b6000600554905090565b8060001515600f600083815260200190815260200160002060009054906101000a900460ff16151514151561106957600080fd5b6000809054906101000a900473ffffffffffffffffffffffffffffffffffffffff1673ffffffffffffffffffffffffffffffffffffffff163373ffffffffffffffffffffffffffffffffffffffff161415156110c457600080fd5b60001515600060149054906101000a900460ff1615151415156110e357fe5b6001600f600084815260200190815260200160002060006101000a81548160ff0219169083151502179055505050565b60001515600060149054906101000a900460ff16151514151561113257fe5b8273ffffffffffffffffffffffffffffffffffffffff163373ffffffffffffffffffffffffffffffffffffffff161415801561120a57503373ffffffffffffffffffffffffffffffffffffffff16600b60008573ffffffffffffffffffffffffffffffffffffffff1673ffffffffffffffffffffffffffffffffffffffff168152602001908152602001600020600083815260200190815260200160002060009054906101000a900473ffffffffffffffffffffffffffffffffffffffff1673ffffffffffffffffffffffffffffffffffffffff1614155b156112ac5760011515600c60008573ffffffffffffffffffffffffffffffffffffffff1673ffffffffffffffffffffffffffffffffffffffff16815260200190815260200160002060003373ffffffffffffffffffffffffffffffffffffffff1673ffffffffffffffffffffffffffffffffffffffff16815260200190815260200160002060009054906101000a900460ff1615151415156112ab57600080fd5b5b600073ffffffffffffffffffffffffffffffffffffffff168273ffffffffffffffffffffffffffffffffffffffff16141515156112e857600080fd5b60011515600a600083815260200190815260200160002060009054906101000a900460ff16151514151561131b57600080fd5b60146001600760008573ffffffffffffffffffffffffffffffffffffffff1673ffffffffffffffffffffffffffffffffffffffff16815260200190815260200160002054011115151561136d57600080fd5b8273ffffffffffffffffffffffffffffffffffffffff166009600083815260200190815260200160002060009054906101000a900473ffffffffffffffffffffffffffffffffffffffff1673ffffffffffffffffffffffffffffffffffffffff161415156113da57600080fd5b816009600083815260200190815260200160002060006101000a81548173ffffffffffffffffffffffffffffffffffffffff021916908373ffffffffffffffffffffffffffffffffffffffff1602179055506001600860008573ffffffffffffffffffffffffffffffffffffffff1673ffffffffffffffffffffffffffffffffffffffff168152602001908152602001600020600082825403925050819055506001600860008473ffffffffffffffffffffffffffffffffffffffff1673ffffffffffffffffffffffffffffffffffffffff1681526020019081526020016000206000828254019250508190555060026010600083815260200190815260200160002060020160006101000a81548160ff021916908360028111156114fb57fe5b02179055506000600760008473ffffffffffffffffffffffffffffffffffffffff1673ffffffffffffffffffffffffffffffffffffffff16815260200190815260200160002054905081600e60008573ffffffffffffffffffffffffffffffffffffffff1673ffffffffffffffffffffffffffffffffffffffff1681526020019081526020016000206000838152602001908152602001600020819055506115a38483612d2f565b6000600b60008673ffffffffffffffffffffffffffffffffffffffff1673ffffffffffffffffffffffffffffffffffffffff168152602001908152602001600020600084815260200190815260200160002060006101000a81548173ffffffffffffffffffffffffffffffffffffffff021916908373ffffffffffffffffffffffffffffffffffffffff160217905550818373ffffffffffffffffffffffffffffffffffffffff168573ffffffffffffffffffffffffffffffffffffffff167fddf252ad1be2c89b69c2b068fc378daa952ba7f163c4a11628f55a4df523b3ef60405160405180910390a481600073ffffffffffffffffffffffffffffffffffffffff168573ffffffffffffffffffffffffffffffffffffffff167f8c5be1e5ebec7d5bd14f71427d1e84f3dd0314c0f7b2291e5b200ac8c7c3b92560405160405180910390a450505050565b6010602052806000526040600020600091509050806000015490806001018054600181600116156101000203166002900480601f0160208091040260200160405190810160405280929190818152602001828054600181600116156101000203166002900480156117a25780601f10611777576101008083540402835291602001916117a2565b820191906000526020600020905b81548152906001019060200180831161178557829003601f168201915b5050505050908060020160009054906101000a900460ff16908060030154908060040154905085565b6000809054906101000a900473ffffffffffffffffffffffffffffffffffffffff1673ffffffffffffffffffffffffffffffffffffffff163373ffffffffffffffffffffffffffffffffffffffff1614151561182657600080fd5b600081600254031015151561183a57600080fd5b600154816001540310151561184e57600080fd5b600254816002540310151561186257600080fd5b8060016000828254039250508190555080600260008282540392505081905550807f68f746fa442825e3adb1debb25ccd514d1f0fcc51ea85ecbdb390968f4b487a56000604051808215151515815260200191505060405180910390a250565b6000600254905090565b6000809054906101000a900473ffffffffffffffffffffffffffffffffffffffff1673ffffffffffffffffffffffffffffffffffffffff163373ffffffffffffffffffffffffffffffffffffffff1614151561192757600080fd5b60001515600060149054906101000a900460ff16151514151561194657fe5b600154816001540111151561195a57600080fd5b600254816002540111151561196e57600080fd5b8060016000828254019250508190555080600260008282540192505081905550807f68f746fa442825e3adb1debb25ccd514d1f0fcc51ea85ecbdb390968f4b487a56001604051808215151515815260200191505060405180910390a250565b60006009600083815260200190815260200160002060009054906101000a900473ffffffffffffffffffffffffffffffffffffffff169050919050565b60008073ffffffffffffffffffffffffffffffffffffffff168273ffffffffffffffffffffffffffffffffffffffff1614151515611a4857600080fd5b600860008373ffffffffffffffffffffffffffffffffffffffff1673ffffffffffffffffffffffffffffffffffffffff168152602001908152602001600020549050919050565b8060001515600f600083815260200190815260200160002060009054906101000a900460ff161515141515611ac357600080fd5b60011515600060149054906101000a900460ff161515141515611ae257fe5b60001515600f600084815260200190815260200160002060009054906101000a900460ff161515141515611b1257fe5b3373ffffffffffffffffffffffffffffffffffffffff166009600084815260200190815260200160002060009054906101000a900473ffffffffffffffffffffffffffffffffffffffff1673ffffffffffffffffffffffffffffffffffffffff16141515611b7f57600080fd5b60011515600a600084815260200190815260200160002060009054906101000a900460ff161515141515611baf57fe5b60006010600084815260200190815260200160002060040154905060006009600085815260200190815260200160002060006101000a81548173ffffffffffffffffffffffffffffffffffffffff021916908373ffffffffffffffffffffffffffffffffffffffff16021790555060016002600082825401925050819055506001600860003373ffffffffffffffffffffffffffffffffffffffff1673ffffffffffffffffffffffffffffffffffffffff16815260200190815260200160002060008282540392505081905550611c863384612d2f565b6000600b60003373ffffffffffffffffffffffffffffffffffffffff1673ffffffffffffffffffffffffffffffffffffffff168152602001908152602001600020600085815260200190815260200160002060006101000a81548173ffffffffffffffffffffffffffffffffffffffff021916908373ffffffffffffffffffffffffffffffffffffffff1602179055503373ffffffffffffffffffffffffffffffffffffffff166108fc829081150290604051600060405180830381858888f19350505050158015611d5c573d6000803e3d6000fd5b5082600073ffffffffffffffffffffffffffffffffffffffff163373ffffffffffffffffffffffffffffffffffffffff167f8c5be1e5ebec7d5bd14f71427d1e84f3dd0314c0f7b2291e5b200ac8c7c3b92560405160405180910390a482600073ffffffffffffffffffffffffffffffffffffffff163373ffffffffffffffffffffffffffffffffffffffff167fddf252ad1be2c89b69c2b068fc378daa952ba7f163c4a11628f55a4df523b3ef60405160405180910390a4505050565b6000600f600083815260200190815260200160002060009054906101000a900460ff169050919050565b60008060009054906101000a900473ffffffffffffffffffffffffffffffffffffffff1673ffffffffffffffffffffffffffffffffffffffff163373ffffffffffffffffffffffffffffffffffffffff16141515611ea157600080fd5b3073ffffffffffffffffffffffffffffffffffffffff1631905090565b6000809054906101000a900473ffffffffffffffffffffffffffffffffffffffff1681565b60001515600060149054906101000a900460ff161515141515611f0257fe5b600081111515611f1157600080fd5b6000600554905060008282029050348111151515611f2e57600080fd5b600a8311151515611f3e57600080fd5b8260025410151515611f4f57600080fd5b601483600760003373ffffffffffffffffffffffffffffffffffffffff1673ffffffffffffffffffffffffffffffffffffffff168152602001908152602001600020540111151515611fa057600080fd5b611fab833384612e44565b82600860003373ffffffffffffffffffffffffffffffffffffffff1673ffffffffffffffffffffffffffffffffffffffff168152602001908152602001600020600082825401925050819055508260026000828254039250508190555060008134039050612018816131c5565b50505050565b60001515600060149054906101000a900460ff16151514151561203d57fe5b3373ffffffffffffffffffffffffffffffffffffffff168273ffffffffffffffffffffffffffffffffffffffff161415151561207857600080fd5b801515600c60003373ffffffffffffffffffffffffffffffffffffffff1673ffffffffffffffffffffffffffffffffffffffff16815260200190815260200160002060008473ffffffffffffffffffffffffffffffffffffffff1673ffffffffffffffffffffffffffffffffffffffff16815260200190815260200160002060009054906101000a900460ff1615151415151561211457600080fd5b80600c60003373ffffffffffffffffffffffffffffffffffffffff1673ffffffffffffffffffffffffffffffffffffffff16815260200190815260200160002060008473ffffffffffffffffffffffffffffffffffffffff1673ffffffffffffffffffffffffffffffffffffffff16815260200190815260200160002060006101000a81548160ff0219169083151502179055508173ffffffffffffffffffffffffffffffffffffffff163373ffffffffffffffffffffffffffffffffffffffff167f17307eab39ab6107e8899845ad3d59bd9653f200f220920489ca2b5937696c3183604051808215151515815260200191505060405180910390a35050565b6000809054906101000a900473ffffffffffffffffffffffffffffffffffffffff1673ffffffffffffffffffffffffffffffffffffffff163373ffffffffffffffffffffffffffffffffffffffff1614151561227057600080fd5b80600060146101000a81548160ff02191690831515021790555050565b6000600e60008473ffffffffffffffffffffffffffffffffffffffff1673ffffffffffffffffffffffffffffffffffffffff168152602001908152602001600020600083815260200190815260200160002054905092915050565b6000600c60008473ffffffffffffffffffffffffffffffffffffffff1673ffffffffffffffffffffffffffffffffffffffff16815260200190815260200160002060008373ffffffffffffffffffffffffffffffffffffffff1673ffffffffffffffffffffffffffffffffffffffff16815260200190815260200160002060009054906101000a900460ff16905092915050565b8160001515600f600083815260200190815260200160002060009054906101000a900460ff1615151415156123b057600080fd5b8373ffffffffffffffffffffffffffffffffffffffff163373ffffffffffffffffffffffffffffffffffffffff161415801561248857503373ffffffffffffffffffffffffffffffffffffffff16600b60008673ffffffffffffffffffffffffffffffffffffffff1673ffffffffffffffffffffffffffffffffffffffff168152602001908152602001600020600085815260200190815260200160002060009054906101000a900473ffffffffffffffffffffffffffffffffffffffff1673ffffffffffffffffffffffffffffffffffffffff1614155b1561252a5760011515600c60008673ffffffffffffffffffffffffffffffffffffffff1673ffffffffffffffffffffffffffffffffffffffff16815260200190815260200160002060003373ffffffffffffffffffffffffffffffffffffffff1673ffffffffffffffffffffffffffffffffffffffff16815260200190815260200160002060009054906101000a900460ff16151514151561252957600080fd5b5b60011515600a600085815260200190815260200160002060009054906101000a900460ff16151514151561255d57600080fd5b8373ffffffffffffffffffffffffffffffffffffffff166009600085815260200190815260200160002060009054906101000a900473ffffffffffffffffffffffffffffffffffffffff1673ffffffffffffffffffffffffffffffffffffffff161415156125ca57600080fd5b6000151582151514156126105760026010600085815260200190815260200160002060020160006101000a81548160ff0219169083600281111561260a57fe5b02179055505b60016010600085815260200190815260200160002060020160006101000a81548160ff0219169083600281111561264357fe5b021790555050505050565b6000809054906101000a900473ffffffffffffffffffffffffffffffffffffffff1673ffffffffffffffffffffffffffffffffffffffff163373ffffffffffffffffffffffffffffffffffffffff161415156126a957600080fd5b60001515600060149054906101000a900460ff1615151415156126c857fe5b600081101515156126d857600080fd5b8060058190555050565b60001515600060149054906101000a900460ff16151514151561270157fe5b6000600554905080341015151561271757600080fd5b3373ffffffffffffffffffffffffffffffffffffffff168373ffffffffffffffffffffffffffffffffffffffff161415151561275257600080fd5b60011515600a600084815260200190815260200160002060009054906101000a900460ff16151514151561278557600080fd5b60146001600760003373ffffffffffffffffffffffffffffffffffffffff1673ffffffffffffffffffffffffffffffffffffffff1681526020019081526020016000205401111515156127d757600080fd5b8273ffffffffffffffffffffffffffffffffffffffff166009600084815260200190815260200160002060009054906101000a900473ffffffffffffffffffffffffffffffffffffffff1673ffffffffffffffffffffffffffffffffffffffff1614151561284457600080fd5b6001600281111561285157fe5b6010600084815260200190815260200160002060020160009054906101000a900460ff16600281111561288057fe5b14151561288c57600080fd5b336009600084815260200190815260200160002060006101000a81548173ffffffffffffffffffffffffffffffffffffffff021916908373ffffffffffffffffffffffffffffffffffffffff1602179055508060106000848152602001908152602001600020600301819055506001600860008573ffffffffffffffffffffffffffffffffffffffff1673ffffffffffffffffffffffffffffffffffffffff168152602001908152602001600020600082825403925050819055506001600860003373ffffffffffffffffffffffffffffffffffffffff1673ffffffffffffffffffffffffffffffffffffffff1681526020019081526020016000206000828254019250508190555060026010600084815260200190815260200160002060020160006101000a81548160ff021916908360028111156129c857fe5b0217905550600081340390506129dd816131c5565b8373ffffffffffffffffffffffffffffffffffffffff166108fc839081150290604051600060405180830381858888f19350505050158015612a23573d6000803e3d6000fd5b5034828201141515612a3157fe5b6000600760003373ffffffffffffffffffffffffffffffffffffffff1673ffffffffffffffffffffffffffffffffffffffff16815260200190815260200160002054905083600e60003373ffffffffffffffffffffffffffffffffffffffff1673ffffffffffffffffffffffffffffffffffffffff1681526020019081526020016000206000838152602001908152602001600020819055506001600760003373ffffffffffffffffffffffffffffffffffffffff1673ffffffffffffffffffffffffffffffffffffffff16815260200190815260200160002060008282540192505081905550612b228585612d2f565b6000600b60008773ffffffffffffffffffffffffffffffffffffffff1673ffffffffffffffffffffffffffffffffffffffff168152602001908152602001600020600086815260200190815260200160002060006101000a81548173ffffffffffffffffffffffffffffffffffffffff021916908373ffffffffffffffffffffffffffffffffffffffff16021790555083600073ffffffffffffffffffffffffffffffffffffffff168673ffffffffffffffffffffffffffffffffffffffff167f8c5be1e5ebec7d5bd14f71427d1e84f3dd0314c0f7b2291e5b200ac8c7c3b92560405160405180910390a4833373ffffffffffffffffffffffffffffffffffffffff168673ffffffffffffffffffffffffffffffffffffffff167f5fb16deccda880d198f858bd827f3928bd88eeed2d14f7d1f28c35d67ebc119e60106000898152602001908152602001600020600301546040518082815260200191505060405180910390a45050505050565b6000809054906101000a900473ffffffffffffffffffffffffffffffffffffffff1673ffffffffffffffffffffffffffffffffffffffff163373ffffffffffffffffffffffffffffffffffffffff16141515612cec57600080fd5b806000806101000a81548173ffffffffffffffffffffffffffffffffffffffff021916908373ffffffffffffffffffffffffffffffffffffffff16021790555050565b6000600760008473ffffffffffffffffffffffffffffffffffffffff1673ffffffffffffffffffffffffffffffffffffffff16815260200190815260200160002054905060008090505b60018201811015612e3e5782600e60008673ffffffffffffffffffffffffffffffffffffffff1673ffffffffffffffffffffffffffffffffffffffff1681526020019081526020016000206000838152602001908152602001600020541415612e3157600e60008573ffffffffffffffffffffffffffffffffffffffff1673ffffffffffffffffffffffffffffffffffffffff1681526020019081526020016000206000828152602001908152602001600020600090555b8080600101915050612d79565b50505050565b60008090505b838110156131bf578260096000600354815260200190815260200160002060006101000a81548173ffffffffffffffffffffffffffffffffffffffff021916908373ffffffffffffffffffffffffffffffffffffffff1602179055506000600f6000600354815260200190815260200160002060006101000a81548160ff0219169083151502179055506001600a6000600354815260200190815260200160002060006101000a81548160ff0219169083151502179055506000600760008573ffffffffffffffffffffffffffffffffffffffff1673ffffffffffffffffffffffffffffffffffffffff168152602001908152602001600020549050600354600e60008673ffffffffffffffffffffffffffffffffffffffff1673ffffffffffffffffffffffffffffffffffffffff1681526020019081526020016000206000838152602001908152602001600020819055506001600760008673ffffffffffffffffffffffffffffffffffffffff1673ffffffffffffffffffffffffffffffffffffffff1681526020019081526020016000206000828254019250508190555060a060405190810160405280600354815260200160048054600181600116156101000203166002900480601f0160208091040260200160405190810160405280929190818152602001828054600181600116156101000203166002900480156130955780601f1061306a57610100808354040283529160200191613095565b820191906000526020600020905b81548152906001019060200180831161307857829003601f168201915b505050505081526020016002808111156130ab57fe5b8152602001848152602001848152506010600060035481526020019081526020016000206000820151816000015560208201518160010190805190602001906130f592919061320f565b5060408201518160020160006101000a81548160ff0219169083600281111561311a57fe5b021790555060608201518160030155608082015181600401559050506003600081548092919060010191905055506003548473ffffffffffffffffffffffffffffffffffffffff16600073ffffffffffffffffffffffffffffffffffffffff167f5fb16deccda880d198f858bd827f3928bd88eeed2d14f7d1f28c35d67ebc119e866040518082815260200191505060405180910390a4508080600101915050612e4a565b50505050565b3373ffffffffffffffffffffffffffffffffffffffff166108fc829081150290604051600060405180830381858888f1935050505015801561320b573d6000803e3d6000fd5b5050565b828054600181600116156101000203166002900490600052602060002090601f016020900481019282601f1061325057805160ff191683800117855561327e565b8280016001018555821561327e579182015b8281111561327d578251825591602001919060010190613262565b5b50905061328b919061328f565b5090565b6132b191905b808211156132ad576000816000905550600101613295565b5090565b9056fea165627a7a723058206385a64febd0e30295f7b9c03647192010e27c43d9614f55703c85765af3c0f30029",
  "source": "pragma solidity ^0.5.0;\r\n\r\n\r\n\r\n        /// @title ERC-721 Non-Fungible Token Standard\r\n        /// @dev See https://github.com/ethereum/EIPs/blob/master/EIPS/eip-721.md\r\n        ///  Note: the ERC-165 identifier for this interface is 0x80ac58cd\r\n        interface ERC721 /* is ERC165 */ {\r\n            /// @dev This emits when ownership of any NFT changes by any mechanism.\r\n            ///  This event emits when NFTs are created (`from` == 0) and destroyed\r\n            ///  (`to` == 0). Exception: during contract creation, any number of NFTs\r\n            ///  may be created and assigned without emitting Transfer. At the time of\r\n            ///  any transfer, the approved address for that NFT (if any) is reset to none.\r\n            event Transfer(address indexed _from, address indexed _to, uint256 indexed _tokenId);\r\n\r\n            /// @dev This emits when the approved address for an NFT is changed or\r\n            ///  reaffirmed. The zero address indicates there is no approved address.\r\n            ///  When a Transfer event emits, this also indicates that the approved\r\n            ///  address for that NFT (if any) is reset to none.\r\n            event Approval(address indexed _owner, address indexed _approved, uint256 indexed _tokenId);\r\n\r\n            /// @dev This emits when an operator is enabled or disabled for an owner.\r\n            ///  The operator can manage all NFTs of the owner.\r\n            event ApprovalForAll(address indexed _owner, address indexed _operator, bool _approved);\r\n\r\n            /// @notice Count all NFTs assigned to an owner\r\n            /// @dev NFTs assigned to the zero address are considered invalid, and this\r\n            ///  function throws for queries about the zero address.\r\n            /// @param _owner An address for whom to query the balance\r\n            /// @return The number of NFTs owned by `_owner`, possibly zero\r\n            function balanceOf(address _owner) external view returns (uint256);\r\n\r\n            /// @notice Find the owner of an NFT\r\n            /// @dev NFTs assigned to zero address are considered invalid, and queries\r\n            ///  about them do throw.\r\n            /// @param _tokenId The identifier for an NFT\r\n            /// @return The address of the owner of the NFT\r\n            function ownerOf(uint256 _tokenId) external view returns (address);\r\n\r\n            /// @notice Transfer ownership of an NFT -- THE CALLER IS RESPONSIBLE\r\n            ///  TO CONFIRM THAT `_to` IS CAPABLE OF RECEIVING NFTS OR ELSE\r\n            ///  THEY MAY BE PERMANENTLY LOST\r\n            /// @dev Throws unless `msg.sender` is the current owner, an authorized\r\n            ///  operator, or the approved address for this NFT. Throws if `_from` is\r\n            ///  not the current owner. Throws if `_to` is the zero address. Throws if\r\n            ///  `_tokenId` is not a valid NFT.\r\n            /// @param _from The current owner of the NFT\r\n            /// @param _to The new owner\r\n            /// @param _tokenId The NFT to transfer\r\n            function transferFrom(address _from, address _to, uint256 _tokenId) external payable;\r\n\r\n            /// @notice Set or reaffirm the approved address for an NFT\r\n            /// @dev The zero address indicates there is no approved address.\r\n            /// @dev Throws unless `msg.sender` is the current NFT owner, or an authorized\r\n            ///  operator of the current owner.\r\n            /// @param _approved The new approved NFT controller\r\n            /// @param _tokenId The NFT to approve\r\n            function approve(address _approved, uint256 _tokenId) external payable;\r\n\r\n            /// @notice Enable or disable approval for a third party (\"operator\") to manage\r\n            ///  all of `msg.sender`'s assets.\r\n            /// @dev Emits the ApprovalForAll event. The contract MUST allow\r\n            ///  multiple operators per owner.\r\n            /// @param _operator Address to add to the set of authorized operators.\r\n            /// @param _approved True if the operator is approved, false to revoke approval\r\n            function setApprovalForAll(address _operator, bool _approved) external;\r\n\r\n            /// @notice Get the approved address for a single NFT\r\n            /// @dev Throws if `_tokenId` is not a valid NFT\r\n            /// @param _tokenId The NFT to find the approved address for\r\n            /// @return The approved address for this NFT, or the zero address if there is none\r\n            function getApproved(uint256 _tokenId) external view returns (address);\r\n\r\n            /// @notice Query if an address is an authorized operator for another address\r\n            /// @param _owner The address that owns the NFTs\r\n            /// @param _operator The address that acts on behalf of the owner\r\n            /// @return True if `_operator` is an approved operator for `_owner`, false otherwise\r\n            function isApprovedForAll(address _owner, address _operator) external view returns (bool);\r\n        }\r\n        \r\ncontract Owned {\r\n    address public owner;\r\n\r\n    constructor() public {\r\n        owner = msg.sender;\r\n    }\r\n\r\n    modifier onlyOwner {\r\n        require(msg.sender == owner);\r\n        _;\r\n    }\r\n\r\n    function transferOwnership(address newOwner) onlyOwner public {\r\n        owner = newOwner;\r\n    }\r\n}\r\n\r\n         \r\n          /// @title Ticketing Application\r\n        /// @dev github link here\r\ncontract TicketingApplication is ERC721, Owned{\r\n    \r\n    /// @dev This emits when ownership of any NFT changes by any mechanism.\r\n    ///  This event emits when NFTs are created (`from` == 0) and destroyed\r\n    ///  (`to` == 0). Exception: during contract creation, any number of NFTs \r\n    ///  may be created and assigned without emitting Transfer. At the time of\r\n    ///  any transfer, the approved address for that NFT (if any) is reset to none.\r\n    event Transfer(address indexed _from, address indexed _to, uint256 indexed _tokenId);\r\n\r\n    /// @dev This emits when the approved address for an NFT is changed or\r\n    ///  reaffirmed. The zero address indicates there is no approved address.\r\n    ///  When a Transfer event emits, this also indicates that the approved\r\n    ///  address for that NFT (if any) is reset to none.\r\n    event Approval(address indexed _owner, address indexed _approved, uint256 indexed _tokenId);\r\n\r\n    /// @dev This emits when an operator is enabled or disabled for an owner.\r\n    ///  The operator can manage all NFTs of the owner.\r\n    event ApprovalForAll(address indexed _owner, address indexed _operator, bool _approved);\r\n    \r\n    /// @dev This emits when there is an update to the ticket supply\r\n    /// A return of false indicates that the total supply decreased\r\n    event SupplyUpdate(uint256 indexed _amount, bool _increased);\r\n    \r\n     /// @dev This emits a ticket is purchased either from a primary or secondary supplier\r\n    /// A zero address of 'from' indicates that the ticket was generated\r\n    event TicketPurchased(address indexed _from, address indexed _to, uint256 indexed _tokenId, uint256 price);\r\n    \r\n    bool stopExecution = false;\r\n    \r\n    uint256 totalSupply;\r\n    \r\n    uint256 ticketsRemaining;\r\n    \r\n    uint256 ticketId = 1;\r\n    \r\n    //name of ticket\r\n    string name;\r\n    \r\n    // ticket price in wei\r\n    uint256 price;\r\n    \r\n    mapping(address => uint256) private balance;\r\n    \r\n    mapping (address => uint256) ticketsPurchased;\r\n\r\n    \r\n    // user ticket balance\r\n    mapping (address => uint256) ticketBalance;\r\n    \r\n    // owner of token_Id\r\n    mapping (uint256 => address) ticketOwners;\r\n    \r\n    // valid ticket id's\r\n    mapping (uint256 => bool) validTicket;\r\n    \r\n    // approved addresses to transfer specific token on owners behalf\r\n    mapping(address => mapping (uint256 => address)) private approvedAddress;\r\n    \r\n    // approved operators to perform tasks on owners behalf\r\n    mapping(address => mapping (address => bool)) private approvedOperator;\r\n    \r\n    // user prices paid for each ticket\r\n    mapping(address => mapping(uint256 => uint256)) private ticketPrices;\r\n    \r\n    // array of ticket ids for each user\r\n    mapping(address => mapping(uint256 => uint256)) private ownerTickets;\r\n    \r\n    \r\n    \r\n    mapping (uint256 => bool) ticketRedeemed;\r\n    \r\n    \r\n    \r\n    mapping (uint256 => Ticket) public tickets;\r\n    \r\n     struct Ticket {\r\n        uint id;\r\n        string name;\r\n        Status status;\r\n        uint256 PurchasePrice;\r\n        uint256 originalPrice;\r\n    }\r\n    \r\n    enum Status {redeemed, forSale, notForSale}\r\n    \r\n    \r\n    // implement these two\r\n    modifier breakerActive { assert(stopExecution == true); _;}\r\n    \r\n    modifier breakerInactive { assert(stopExecution == false); _;}\r\n    \r\n    modifier pending(uint256 _tokenId) { require(ticketRedeemed[_tokenId] == false); _;}\r\n    \r\n    modifier ticketOwner(uint256 _tokenId) {require(ticketOwners[_tokenId] == msg.sender); _;}\r\n    \r\n   \r\n    \r\n      constructor(uint256 _initialSupply, uint256 _price) public {\r\n          totalSupply = _initialSupply;\r\n          ticketsRemaining = _initialSupply;\r\n          price = _price; \r\n    }\r\n    \r\n    /** @dev Generates NFTs as tickets.\r\n      * @param _amount Amount of tickets to generate. \r\n      * @param _owner The owner of the ticket. \r\n      * @param _price The price of the ticket.\r\n      */\r\n    function generateTicket(uint256 _amount, address _owner, uint256 _price) internal{\r\n        \r\n        for (uint256 i = 0; i < _amount; i++) {\r\n            ticketOwners[ticketId] = _owner;\r\n            ticketRedeemed[ticketId] = false;\r\n            validTicket[ticketId] = true;\r\n    \r\n            \r\n             // add ticket index\r\n            uint256 index = ticketsPurchased[_owner];\r\n            ownerTickets[_owner][index] = ticketId;\r\n           \r\n            ticketsPurchased[_owner] += 1;\r\n            \r\n            //add ticket struct\r\n            tickets[ticketId] = Ticket({ id: ticketId, name: name, status: Status.notForSale, PurchasePrice: _price, originalPrice: _price});\r\n\r\n            \r\n            ///--------------------------------------------\r\n            ticketId ++;\r\n            emit TicketPurchased(address(0), _owner, ticketId, _price);\r\n        }\r\n            //emit SupplyUpdate(_amount, true);\r\n\r\n    }\r\n    \r\n    \r\n    // function getPurchasePrice(uint256 _tokenId) external view returns(uint256){\r\n    //     return ticketPrices[msg.sender][_tokenId];\r\n    // }\r\n    //////\r\n    \r\n    /** @dev Refund the purchaser the amount they overpaid.\r\n      * @param _refundAmount The amount to refund the purchaser.\r\n      */ \r\n    function refundOverpay(uint256 _refundAmount) internal {\r\n        // uint _price = tickets[_tokenId].price;\r\n        // uint refundAmount = msg.value - (_price * _ticketAmount);\r\n        msg.sender.transfer(_refundAmount);\r\n    }\r\n    \r\n    /** @dev Purchase tickets from the primary vendor. Tickets are\r\n      *  generated at a maximum of 10 per transaction.  \r\n      * @param _amount Amount of tickets to purchase.\r\n      */  \r\n    function purchaseTickets(uint256 _amount) breakerInactive  public payable {\r\n        require(_amount > 0);\r\n        uint256 currentPrice = price;\r\n        uint256 totalPayment = currentPrice * _amount;\r\n        require(totalPayment <= msg.value);\r\n        \r\n        // minimise generation load\r\n        require(_amount <= 10);\r\n        // check enough tickets remaining \r\n        require(ticketsRemaining >= _amount);\r\n        \r\n        require((ticketsPurchased[msg.sender] + _amount) <= 20);\r\n   \r\n        generateTicket(_amount, msg.sender, currentPrice);\r\n        \r\n        ticketBalance[msg.sender] += _amount;\r\n        ticketsRemaining -= _amount;\r\n        \r\n        uint256 refundAmount = msg.value - totalPayment;\r\n        \r\n        refundOverpay(refundAmount);\r\n    }\r\n    \r\n    /** @dev Adds tickets to the total supply, updating the tickets remaining.\r\n      * @param _amount The amount of tickets to add.\r\n      */ \r\n    function addTickets(uint256 _amount) onlyOwner breakerInactive public {\r\n        // check for overflows\r\n        require(totalSupply + _amount > totalSupply);\r\n        require(ticketsRemaining + _amount > ticketsRemaining);\r\n        totalSupply += _amount;\r\n        ticketsRemaining += _amount;\r\n        \r\n        emit SupplyUpdate(_amount, true);\r\n    }\r\n    \r\n    /** @dev Updates the price of all tickets\r\n      * @param _price The new price of all tickets\r\n      */ \r\n    function updateTicketPrice(uint256 _price) onlyOwner breakerInactive public {\r\n        require(_price >= 0);\r\n        price = _price;\r\n    }\r\n    \r\n    /** @dev Remove tickets from the totalSupply and update ticketsRemaining.\r\n      * @param _amount The amount of tickets to remove. \r\n      */ \r\n    function burnTickets(uint256 _amount) onlyOwner public {\r\n        require(ticketsRemaining - _amount >= 0);\r\n        // check for overflows\r\n        require (totalSupply - _amount < totalSupply);\r\n        require (ticketsRemaining - _amount < ticketsRemaining);\r\n        // update variables\r\n        totalSupply -= _amount;\r\n        ticketsRemaining -= _amount;\r\n        \r\n        emit SupplyUpdate(_amount, false);\r\n    }\r\n    \r\n    /** @dev Remove tickets from specified address and update both\r\n      *  totalSupply and ticketsRemaining. \r\n      * @param _owner The owner of the ticket.\r\n      * @param _tokenId The id of the ticket.\r\n      */ \r\n    function burnTicketsFrom(address _owner, uint256 _tokenId) onlyOwner public {\r\n        // owner owns ticket\r\n        require(ticketOwners[_tokenId] == _owner);\r\n        // check for overflow\r\n        require(ticketBalance[_owner] -1 < ticketBalance[owner]);\r\n        ticketBalance[owner] -= 1;\r\n        ticketOwners[_tokenId] = address(0);\r\n        totalSupply -= 1;\r\n        \r\n        removeTicketFromIndex(_owner, _tokenId);\r\n        \r\n        // reset aprooved address\r\n        approvedAddress[_owner][_tokenId] = address(0);\r\n        \r\n        \r\n        emit Transfer(_owner, address(0), _tokenId);        \r\n        emit Approval(_owner, address(0), _tokenId);\r\n        emit SupplyUpdate(1, false);\r\n    }\r\n    \r\n    /** @dev Updates the status of the circuit breaker.\r\n      * @param _status The new status of the circuit breaker.\r\n      */ \r\n    function updateBreakerStatus(bool _status) onlyOwner external {\r\n        stopExecution = _status;\r\n    }\r\n    \r\n    /** @dev Updates the sale status of a ticket.False is notForSale.\r\n      * @param _owner The owner of the ticket.\r\n      * @param _tokenId the id of the ticket.\r\n      * @param _forSale The sale status of the ticket\r\n      */ \r\n    function ticketForSale(address _owner, uint256 _tokenId, bool _forSale) pending(_tokenId) external {\r\n         if (msg.sender != _owner && approvedAddress[_owner][_tokenId] != msg.sender){\r\n            require(approvedOperator[_owner][msg.sender] == true);\r\n        }\r\n        require(validTicket[_tokenId] == true);\r\n        require(ticketOwners[_tokenId] == _owner);\r\n        if (_forSale == false){\r\n            tickets[_tokenId].status = Status.notForSale;\r\n        }\r\n        tickets[_tokenId].status = Status.forSale;\r\n    }\r\n    \r\n    /** @dev Lookup owner ticket Id's by index\r\n      * @param _owner The owner of the ticket.\r\n      * @param _index The index of the ticket.\r\n      */ \r\n    function ticketIndexLookup(address _owner, uint256 _index) public view returns (uint _tokenId){\r\n        return ownerTickets[_owner][_index];\r\n    }\r\n    \r\n    /** @dev Redeem a ticket for when entering event\r\n      * @param _tokenId The id of the ticket to redeem \r\n      */ \r\n    function redeemTicket(uint256 _tokenId) pending(_tokenId) onlyOwner breakerInactive external{\r\n        ticketRedeemed[_tokenId] = true;\r\n    }\r\n    \r\n    /** @dev Checks whether or not a ticket has been redeemed.\r\n      *  True indicates the ticket has been redeemed.\r\n      * @param _tokenId The id of the ticket.\r\n      * @return ticketRedeemed[_tokenId] the redemption status of the ticket.\r\n      */ \r\n    function Redeemed(uint256 _tokenId) external view returns (bool){\r\n        return ticketRedeemed[_tokenId];\r\n    }\r\n    \r\n    // function getBalance() external view returns (uint256){\r\n    //     return balance[msg.sender];\r\n    // }\r\n    \r\n    /** @dev Returns the current price of tickets.\r\n      * @return price The price of each ticket.\r\n      */ \r\n    function ticketPrice() external view returns (uint256){\r\n        return price;\r\n    }\r\n    \r\n    /** @dev Returns the number of remaining tickets.\r\n      * @return ticketsRemaining The amount of tickets remaining. \r\n      */ \r\n    function remainingTickets() external view returns (uint256){\r\n        return ticketsRemaining;\r\n    }\r\n  \r\n    /// @notice Count all NFTs assigned to an owner\r\n    /// @dev NFTs assigned to the zero address are considered invalid, and this\r\n    ///  function throws for queries about the zero address.\r\n    /// @param _owner An address for whom to query the balance\r\n    /// @return The number of NFTs owned by `_owner`, possibly zero\r\n    function balanceOf(address _owner) external view returns (uint256){\r\n        require(_owner != address(0));\r\n        return ticketBalance[_owner];\r\n    } \r\n    \r\n    /** @dev Returns the owner of a specific ticket.\r\n      * @param _tokenId the id of the ticket. \r\n      * @return ticketOwners[_tokenId] the address of the ticket owner. \r\n      */ \r\n    function ownerOf(uint256 _tokenId) external view returns (address){\r\n        return ticketOwners[_tokenId];\r\n    }\r\n    \r\n    \r\n    /// @notice Transfer ownership of an NFT -- THE CALLER IS RESPONSIBLE\r\n    ///  TO CONFIRM THAT `_to` IS CAPABLE OF RECEIVING NFTS OR ELSE\r\n    ///  THEY MAY BE PERMANENTLY LOST\r\n    /// @dev Throws unless `msg.sender` is the current owner, an authorized\r\n    ///  operator, or the approved address for this NFT. Throws if `_from` is\r\n    ///  not the current owner. Throws if `_to` is the zero address. Throws if\r\n    ///  `_tokenId` is not a valid NFT.\r\n    /// @param _from The current owner of the NFT\r\n    /// @param _to The new owner\r\n    /// @param _tokenId The NFT to transfer\r\n    function transferFrom(address _from, address _to, uint256 _tokenId) breakerInactive external payable{\r\n        // this is not payable and handles transferring of tickets without payment and doesn't increment tickets purchased\r\n        // check valid request\r\n         if (msg.sender != _from && approvedAddress[_from][_tokenId] != msg.sender){\r\n            require(approvedOperator[_from][msg.sender] == true);\r\n        }\r\n         // save price incase of change\r\n        // uint amount = price;\r\n        // require(msg.value >= amount);\r\n        // prevent transfer to OxO address\r\n        require(_to != address(0));\r\n         // check for valid token_Id\r\n        require(validTicket[_tokenId] == true);\r\n        // check buyer hasn't reached ticket purchase limit;\r\n        require((ticketsPurchased[_to] + 1) <= 20);\r\n        // check that from address holds the ticket\r\n        require(ticketOwners[_tokenId] == _from);\r\n        // check for enough balance\r\n       // require(balance[_to] >= amount);\r\n        // update ticket holder\r\n        ticketOwners[_tokenId] = _to;\r\n        // update balances\r\n        ticketBalance[_from] -=1;\r\n        ticketBalance[_to] += 1;\r\n        \r\n          //update ticket Status\r\n        tickets[_tokenId].status = Status.notForSale;\r\n\r\n         ///test this!!\r\n        // transfer ether\r\n        //_from.transfer(msg.value);\r\n        \r\n        \r\n       \r\n        // add ticket index\r\n        uint256 index = ticketsPurchased[_to];\r\n        ownerTickets[_to][index] = _tokenId;\r\n        //ticketsPurchased[_to] += 1;\r\n        removeTicketFromIndex(_from, _tokenId);\r\n        \r\n        // reset approved address\r\n        approvedAddress[_from][_tokenId] = address(0);\r\n        \r\n        \r\n        \r\n        \r\n        emit Transfer(_from, _to, _tokenId);\r\n        emit Approval(_from, address(0), _tokenId);\r\n\r\n        \r\n    }\r\n    /** @dev Purchase tickets from a specified address.\r\n      * @param _owner The owner of the ticket.\r\n      * @param _tokenId The id of the ticket.\r\n      */ \r\n    function purchaseTicketsFrom(address payable _owner, uint256 _tokenId) breakerInactive  external payable{\r\n        // this is payable and handles purchasing and transfering tickets from addresses with payment\r\n        \r\n        uint256 currentPrice = price;\r\n        require(msg.value >= currentPrice);\r\n        \r\n        // can't buy ticket they own\r\n        require(_owner != msg.sender);\r\n        \r\n        require(validTicket[_tokenId] == true);\r\n        //check buyer hasn't reached ticket purchase limit;\r\n        require((ticketsPurchased[msg.sender] + 1) <= 20);\r\n        \r\n        require(ticketOwners[_tokenId] == _owner);\r\n        \r\n        // ticket is forSale\r\n        require(tickets[_tokenId].status == Status.forSale);\r\n        \r\n        ticketOwners[_tokenId] = msg.sender;\r\n        tickets[_tokenId].PurchasePrice = currentPrice;\r\n        // update balances\r\n        ticketBalance[_owner] -=1;\r\n        ticketBalance[msg.sender] += 1;\r\n        \r\n        //update ticket Status\r\n        tickets[_tokenId].status = Status.notForSale;\r\n\r\n      \r\n        // transfer ether\r\n        uint256 refundAmount = (msg.value - currentPrice);\r\n        refundOverpay(refundAmount);\r\n        _owner.transfer(currentPrice);\r\n        \r\n        assert((refundAmount + currentPrice) == msg.value);\r\n       \r\n        // add ticket index\r\n        // uint256 index = ticketsPurchased[msg.sender];\r\n        // ownerTickets[msg.sender][index] = _tokenId;\r\n        // //ticketsPurchased[msg.sender] += 1;\r\n      \r\n        \r\n         uint256 index = ticketsPurchased[msg.sender];\r\n            ownerTickets[msg.sender][index] = _tokenId;\r\n           \r\n            ticketsPurchased[msg.sender] += 1;\r\n            \r\n              removeTicketFromIndex(_owner, _tokenId);\r\n        \r\n        // reset approved address\r\n        approvedAddress[_owner][_tokenId] = address(0);\r\n        \r\n     \r\n        \r\n        \r\n        //emit Transfer(_owner, msg.sender, _tokenId);\r\n        emit Approval(_owner, address(0), _tokenId);\r\n        emit TicketPurchased(_owner, msg.sender, _tokenId, tickets[_tokenId].PurchasePrice);\r\n    }\r\n    \r\n    \r\n    \r\n    /** @notice Tickets can only be refunded if the circuit breaker is active.\r\n      * @dev Refund the owner of a ticket the amount the ticket\r\n      *  was originally purchased for.  \r\n      * @param _tokenId The id of the ticket.\r\n      */ \r\n    function refundTicket (uint256 _tokenId) pending(_tokenId) breakerActive external {\r\n        \r\n        assert(ticketRedeemed[_tokenId] == false);\r\n        require(ticketOwners[_tokenId] == msg.sender);\r\n        \r\n        assert(validTicket[_tokenId] == true);\r\n        \r\n        // uint256 amount = ticketPrices[msg.sender][_tokenId];\r\n        \r\n        uint256 amount = tickets[_tokenId].originalPrice;\r\n        \r\n        ticketOwners[_tokenId] = address(0);\r\n        ticketsRemaining += 1;\r\n        ticketBalance[msg.sender] -= 1;\r\n        \r\n        removeTicketFromIndex(msg.sender, _tokenId);\r\n        approvedAddress[msg.sender][_tokenId] = address(0);\r\n\r\n        \r\n        msg.sender.transfer(amount);\r\n        \r\n        emit Approval(msg.sender, address(0), _tokenId);\r\n        emit Transfer(msg.sender, address(0), _tokenId);\r\n    }\r\n    \r\n    /** @dev Removes a ticket from the owners tickets at its index.\r\n      * @param _owner the address of the ticket owner.\r\n      * @param _tokenId the id of the ticket.\r\n      */ \r\n    function removeTicketFromIndex(address _owner, uint256 _tokenId) internal{\r\n\r\n        uint256 p = ticketsPurchased[_owner];\r\n        \r\n        for (uint256 i = 0; i < p + 1; i++){\r\n            \r\n            if (ownerTickets[_owner][i] == _tokenId){\r\n                delete ownerTickets[_owner][i];\r\n            }\r\n        }\r\n      \r\n    }\r\n    \r\n    /** @dev Gets the funds currently held at the contract address.\r\n      * @return address(this).balance The balance of the contact.\r\n      */ \r\n    function contractBalance() onlyOwner external view returns (uint256){\r\n        return address(this).balance;\r\n    }\r\n    \r\n\r\n    /// @notice Set or reaffirm the approved address for an NFT\r\n    /// @dev The zero address indicates there is no approved address.\r\n    /// @dev Throws unless `msg.sender` is the current NFT owner, or an authorized\r\n    ///  operator of the current owner.\r\n    /// @param _approved The new approved NFT controller\r\n    /// @param _tokenId The NFT to approve\r\n    function approve(address _approved, uint256 _tokenId) pending(_tokenId) breakerInactive external payable{\r\n        // check sender owns ticket\r\n        require(msg.sender == ticketOwners[_tokenId]);\r\n        // prevent approving oneself\r\n        require(msg.sender != _approved);\r\n        approvedAddress[msg.sender][_tokenId] = _approved;\r\n        \r\n        emit Approval(msg.sender, _approved, _tokenId);\r\n    }\r\n    /// @notice Enable or disable approval for a third party (\"operator\") to manage\r\n    ///  all of `msg.sender`'s assets.\r\n    /// @dev Emits the ApprovalForAll event. The contract MUST allow\r\n    ///  multiple operators per owner.\r\n    /// @param _operator Address to add to the set of authorized operators.\r\n    /// @param _approved True if the operator is approved, false to revoke approval\r\n    function setApprovalForAll(address _operator, bool _approved) breakerInactive external{\r\n        // prevent approving oneself\r\n        require(_operator != msg.sender);\r\n        // prevent approving already approved\r\n        require(approvedOperator[msg.sender][_operator] != _approved);\r\n        // update approval status\r\n        approvedOperator[msg.sender][_operator] = _approved;\r\n        \r\n        emit ApprovalForAll(msg.sender, _operator, _approved);\r\n    }\r\n    /// @notice Get the approved address for a single NFT\r\n    /// @dev Throws if `_tokenId` is not a valid NFT\r\n    /// @param _tokenId The NFT to find the approved address for\r\n    /// @return The approved address for this NFT, or the zero address if there is none\r\n    function getApproved(uint256 _tokenId) external view returns (address){\r\n        require(validTicket[_tokenId] == true);\r\n        return approvedAddress[msg.sender][_tokenId];\r\n    }\r\n\r\n    /// @notice Query if an address is an authorized operator for another address\r\n    /// @param _owner The address that owns the NFTs\r\n    /// @param _operator The address that acts on behalf of the owner\r\n    /// @return True if `_operator` is an approved operator for `_owner`, false otherwise\r\n    function isApprovedForAll(address _owner, address _operator) external view returns (bool){\r\n        return approvedOperator[_owner][_operator];\r\n    }\r\n    \r\n\r\n}",
  "sourcePath": "/home/sheldon/Documents/Ticketing-Dapp/contracts/Ticketing.sol",
  "compiler": {
    "name": "solc",
    "version": "0.5.0+commit.1d4f565a.Emscripten.clang"
  },
  "schemaVersion": "3.0.1",
  "updatedAt": "2019-01-17T07:18:43.263Z",
  "devdoc": {
    "details": "github link here",
    "methods": {
      "Redeemed(uint256)": {
        "details": "Checks whether or not a ticket has been redeemed.\r True indicates the ticket has been redeemed.\r",
        "params": {
          "_tokenId": "The id of the ticket.\r"
        },
        "return": "ticketRedeemed[_tokenId] the redemption status of the ticket.\r"
      },
      "addTickets(uint256)": {
        "details": "Adds tickets to the total supply, updating the tickets remaining.\r",
        "params": {
          "_amount": "The amount of tickets to add.\r"
        }
      },
      "approve(address,uint256)": {
        "params": {
          "_tokenId": "The NFT to approve"
        }
      },
      "balanceOf(address)": {
        "return": "The number of NFTs owned by `_owner`, possibly zero"
      },
      "burnTickets(uint256)": {
        "details": "Remove tickets from the totalSupply and update ticketsRemaining.\r",
        "params": {
          "_amount": "The amount of tickets to remove. \r"
        }
      },
      "burnTicketsFrom(address,uint256)": {
        "details": "Remove tickets from specified address and update both\r totalSupply and ticketsRemaining. \r",
        "params": {
          "_owner": "The owner of the ticket.\r",
          "_tokenId": "The id of the ticket.\r"
        }
      },
      "contractBalance()": {
        "details": "Gets the funds currently held at the contract address.\r",
        "return": "address(this).balance The balance of the contact.\r"
      },
      "getApproved(uint256)": {
        "return": "The approved address for this NFT, or the zero address if there is none"
      },
      "isApprovedForAll(address,address)": {
        "return": "True if `_operator` is an approved operator for `_owner`, false otherwise"
      },
      "ownerOf(uint256)": {
        "details": "Returns the owner of a specific ticket.\r",
        "params": {
          "_tokenId": "the id of the ticket. \r"
        },
        "return": "ticketOwners[_tokenId] the address of the ticket owner. \r"
      },
      "purchaseTickets(uint256)": {
        "details": "Purchase tickets from the primary vendor. Tickets are\r generated at a maximum of 10 per transaction.  \r",
        "params": {
          "_amount": "Amount of tickets to purchase.\r"
        }
      },
      "purchaseTicketsFrom(address,uint256)": {
        "details": "Purchase tickets from a specified address.\r",
        "params": {
          "_owner": "The owner of the ticket.\r",
          "_tokenId": "The id of the ticket.\r"
        }
      },
      "redeemTicket(uint256)": {
        "details": "Redeem a ticket for when entering event\r",
        "params": {
          "_tokenId": "The id of the ticket to redeem \r"
        }
      },
      "refundTicket(uint256)": {
        "details": "Refund the owner of a ticket the amount the ticket\r was originally purchased for.  \r",
        "params": {
          "_tokenId": "The id of the ticket.\r"
        }
      },
      "remainingTickets()": {
        "details": "Returns the number of remaining tickets.\r",
        "return": "ticketsRemaining The amount of tickets remaining. \r"
      },
      "setApprovalForAll(address,bool)": {
        "params": {
          "_approved": "True if the operator is approved, false to revoke approval"
        }
      },
      "ticketForSale(address,uint256,bool)": {
        "details": "Updates the sale status of a ticket.False is notForSale.\r",
        "params": {
          "_forSale": "The sale status of the ticket\r",
          "_owner": "The owner of the ticket.\r",
          "_tokenId": "the id of the ticket.\r"
        }
      },
      "ticketIndexLookup(address,uint256)": {
        "details": "Lookup owner ticket Id's by index\r",
        "params": {
          "_index": "The index of the ticket.\r",
          "_owner": "The owner of the ticket.\r"
        }
      },
      "ticketPrice()": {
        "details": "Returns the current price of tickets.\r",
        "return": "price The price of each ticket.\r"
      },
      "transferFrom(address,address,uint256)": {
        "params": {
          "_tokenId": "The NFT to transfer"
        }
      },
      "updateBreakerStatus(bool)": {
        "details": "Updates the status of the circuit breaker.\r",
        "params": {
          "_status": "The new status of the circuit breaker.\r"
        }
      },
      "updateTicketPrice(uint256)": {
        "details": "Updates the price of all tickets\r",
        "params": {
          "_price": "The new price of all tickets\r"
        }
      }
    }
  },
  "userdoc": {
    "methods": {
      "refundTicket(uint256)": {
        "notice": "Tickets can only be refunded if the circuit breaker is active.\r"
      }
    }
  }
}